:100000000C9457010C94FA1C0C94271D0C947F013E
:100010000C947F010C947F010C9481010C947F015E
:100020000C947F010C947F010C947F010C947F0150
:100030000C947F010C947F010C947F010C947F0140
:100040000C94541D0C947F010C94F31F0C942520E8
:100050000C947F010C947F010C947F010C947F0120
:100060000C947F010C947F012B03F420418900360E
:10007000400A1D806010622C00082B03F420418987
:100080000036400A1D806010622C33082B03F420D8
:1000900041890036400A1D806010622C22081B0333
:1000A000416027520007400A1E806013A92C223AA3
:1000B0001D03A1204EA50013400A1E806027522C6C
:1000C00022481E03D0009D490045400A2080604E12
:1000D000A52C22482B033402752507FF400A1B80FC
:1000E000609D492C220F020368013A9304D5400A0F
:1000F0001E806009D50C221F06034501D7DC076E60
:10010000400A2D80600EBF0C222E8A0360015555D7
:1001100002AD400A50806020000C22C82B03A1E0F1
:1001200010C70009400A1D806004322C22042703F6
:10013000A1E010C70006400A1D806004322C22078F
:100140002B03F42041890036400A1D806010622C88
:1001500023081B03416027520007400A1E806013DA
:10016000A92C233A1D03A1204EA50013400A1E808E
:100170006027522C23481E03D0009D490045400AA9
:100180002080604EA52C23482B033402752507FFE1
:10019000400A1B80609D492C230F020368013A939B
:1001A00004D5400A1E806009D50C231F06034501B3
:1001B000D7DC076E400A2D80600EBF0C232E8A0309
:1001C0006001555502AD400A50806020000C23C8E4
:1001D000510368003A93013D2C1128806009D52C09
:1001E0002108C803392068DC006B2A082A806013C4
:1001F000A92C2108C8039C00D1B700D42904298068
:100200006027522C2108B8039C00D1B700D4288263
:100210002980604EA52C2108A8039C00D1B700D4EA
:1002200028412980609D492C210898039C00D1B762
:1002300000D4282029806009D50C21089803960055
:10024000DA7400DC281F2980600A3D0C21080000B8
:100250000008000201000003040700000000000085
:100260000000010204081020408001020408102050
:10027000010204081020040404040404040402021B
:100280000202020203030303030300000000230031
:100290002600290000000000250028002B00000097
:1002A0000000240027002A00910F0F11552011246F
:1002B0001FBECFEFD8E0DEBFCDBF11E0A0E0B1E0C0
:1002C000E2EEF7E402C005900D92A835B107D9F728
:1002D00023E0A8E5B1E001C01D92AA31B207E1F721
:1002E00012E0CEEAD2E004C02297FE010E94B123C0
:1002F000C83AD107C9F70E9499200C94EF230C94B7
:1003000000001F920F920FB60F9211248F9388E175
:100310000FB6F89480936000109260000FBE0C94AA
:1003200000008F910F900FBE0F901F9018950E94A4
:100330000B0E0E944D0884B7877F84BFE0E6F0E093
:1003400080818861808381E2808380818064808372
:100350000895EF92FF920F93A89580912702883C11
:1003600008F060C00E943A0D6093580170935901E3
:1003700080935A0190935B01672B682B692BF9F0EE
:10038000E12CF12C00E020E030E046E252E064E0B5
:1003900080E09DE00E9450106091580170915901D9
:1003A00080915A0190915B01409127020E941607AB
:1003B0008823C1F120E030E04AEF50E02EC0809168
:1003C000A80181112FC08091A70181112BC00E942B
:1003D000210DE12CF12C00E020E030E048EE53E06C
:1003E000882371F062E080E09DE00E9450108091CF
:1003F00031028823B9F020E030E040E050E00DC049
:1004000061E080E09DE00E945010809131028823DD
:1004100049F020E030E048EE53E061E08AE19DE001
:100420000E9450100F91FF90EF900C948E090F9343
:100430001F93CF93DF93DC01A05ABF4FFC01E15A19
:10044000FF4F3C91208132130EC0411551056105CB
:10045000710531F4DF91CF911F910F910C949E1D86
:10046000CB01BA0123C0EC01C55ADF4F08811981C5
:100470002A813B81012B022B032BA9F04115510549
:100480006105710529F40E949E1D8B019C0102C02B
:100490008A019B01688179818A819B81600F711F2C
:1004A000821F931F03C060E070E0CB01DF91CF910A
:1004B0001F910F910895A82FE9E9F1E080E06A2FDC
:1004C00070E09191BFEFB90FB73C78F4AF3F39F0CE
:1004D000492F417050E04617570709F0982F81E0E7
:1004E000E33AF80719F0892FECCF982F8091270273
:1004F000981750F4AF3F49F0282F217030E04A2F71
:1005000050E02417350709F0892F0895982F8F3F61
:1005100051F48091990190912702882311F0891755
:1005200058F1892F0895A1E08111A0E0E9E9F1E0F7
:10053000B0E081918823A9F0682F617070E06A179C
:100540007B0729F481E0E33AF80799F70AC0609144
:100550002702462F417050E04A175B0769F0861763
:1005600058F080912702282F217030E0492F50E069
:100570002417350709F080E008951F93CF93DF9388
:10058000182FE9E9F1E060E070E081918117D9F07E
:100590009B012F5F3F4F811110C049E050E0461B87
:1005A000570BEB01C756DE4FBE01C90187569E4F60
:1005B0000E94C723188381E007C0181770F3B901A0
:1005C0002A30310511F780E0DF91CF911F91089516
:1005D0001F93CF93DF9310916C0117FF20C08FEF13
:1005E0000E945B02E0E9F1E023E030E041815281CA
:1005F00063817481452B462B472B41F421503109EF
:100600003B972F3F9FEF390789F703C090819817D9
:10061000A8F72F5F107F212B20936C0136C016FFA7
:1006200034C080E00E945B02C82FD0E081E00E94CD
:100630005B0290E040916F01442301F120917A0127
:100640002223E1F050E04C175D07C4F030E028179A
:100650003907A4F040918501411102C081E00FC02B
:10066000209190012223D1F350E04C175D07B4F3A1
:1006700030E02817390794F382E001C080E092E06F
:10068000981B107F912B90936C01DF91CF911F915C
:100690000895EF920F93E12C0FEF27E342E651E02C
:1006A00063E085EB91E00E943F19882381F00E946E
:1006B0009E1D6C53764F8F4F9F4F6093A301709395
:1006C000A4018093A5019093A60181E001C080E080
:1006D0000F91EF900895CF92EF920F93CF93DF9306
:1006E00000D0CDB7DEB79A838983909115028091AF
:1006F000140298132FC020916C0189819A8126FFE2
:100700000EC060FF0CC020916A0130916B0182170E
:10071000930771F190936B0180936A0117C0209148
:100720006801309169018217930711F1883E43E017
:10073000940740F0283E43E0340720F430935D01F5
:1007400020935C0190936901809368010E944903A2
:1007500081E00FC0C12CEE24EA9400E022E0AE015B
:100760004F5F5F4F64E085EB91E00E94251801C068
:1007700080E00F900F90DF91CF910F91EF90CF908D
:100780000895CF92EF920F93CF93DF9300D000D0D4
:10079000CDB7DEB720916C0126FF24C03091150241
:1007A0002091140232130CC0909369018093680168
:1007B00070936B0160936A010E94490381E013C04A
:1007C0009A8389837C836B83C12CEE24EA9400E0B6
:1007D00024E0AE014F5F5F4F6BE085EB91E00E943C
:1007E000251801C080E00F900F900F900F90DF91BF
:1007F000CF910F91EF90CF9008953F924F925F92DB
:100800006F927F928F929F92AF92BF92CF92DF9220
:10081000EF92FF920F931F93CF93DF9300D000D0FE
:10082000CDB7DEB76B017C01B42E9091150280919B
:1008300014029813DBC1809199018150873C08F024
:10084000D5C140E050E0BA0185EB91E00E9417026B
:1008500068517C4F8F4F9F4F6C157D058E059F050E
:1008600008F4C4C180916C0187FF16C18FEF0E940C
:100870005B028B1508F4BAC1B81203C098ECA92E1C
:1008800001C0AB2C8091990190912702882311F02F
:10089000891708F0892FB81297C020916F018091B5
:1008A000700190917101A0917201B0917301283C87
:1008B00068F14091740150917501609176017091D9
:1008C0007701452B462B472B09F5B701A6014A5066
:1008D00051096109710984179507A607B707B0F098
:1008E000C816D906EA06FB0628F08C199D09AE0940
:1008F000BF0903C080E090E0DC0180937401909315
:100900007501A0937601B09377016CC140913202DA
:10091000509133026091340270913502480F591F93
:100920006A1F7B1F4C155D056E057F0508F05EC1D3
:10093000809190018150873C08F458C141E250E019
:100940006DE671E088E791E00E94C723809168011D
:10095000909169019C012F5F3F4F30936901209373
:10096000680190936E0180936D01A0926F01C09217
:100970007001D0927101E0927201F09273011092B5
:100980007401109275011092760110927701809196
:100990005C0190915D01009741F090936901809313
:1009A000680110925D0110925C0180916801909144
:1009B0006901893E934008F415C181E090E090936D
:1009C0006901809368010EC140913602509137024F
:1009D000609138027091390280913A0290913B0205
:1009E000A0913C02B0913D0289839A83AB83BC8382
:1009F0001BE089EC382EE0E9F1E023E030E0818172
:100A00009281A381B4810097A105B10541F42150E1
:100A100031093B972F3F9FEF390789F7E7C00081E6
:100A20000B15A8F736014701681A790A8A0A9B0A4A
:100A3000D401C301129F2001139F500C1124F20115
:100A4000EE59FE4F2F01628A738A848A958AF8ECE8
:100A5000AF1218C0641675068606970608F4C2C061
:100A6000411551056105710569F069807A808B80B7
:100A70009C80681679068A069B0620F4D2011D9692
:100A80003C92B9CF8BE0829FF001839FF00D11243F
:100A9000EE59FE4FA586A6C086FFA4C0BB2DB1703F
:100AA000AB2E8B2F0E945B02482F8B1508F49EC043
:100AB0002A2D30E02E5F3F4F8BE0829FF001839F15
:100AC000F00D1124E159FE4FB9018081811106C05A
:100AD00062507109769777FDF0C0F7CFB816C0F372
:100AE0008B1108C081819281A381B481892B8A2BCB
:100AF0008B2B71F72BE0269FF001279FF00D11241F
:100B0000EE59FE4F86859785A089B189892B8A2B5E
:100B10008B2BD9F5CB01AA2009F46AC00197289F35
:100B2000F001299FF00D1124EE59FE4F868597851F
:100B3000A089B189970186018C159D05AE05BF0579
:100B400010F48C019D018BE0869FF001879FF00DD2
:100B50001124EE59FE4F06871787208B318BCB016E
:100B6000AA2009F447C001975BE0589FF001599F04
:100B7000F00D1124EE59FE4F86859785A089B18925
:100B8000081719072A073B07B9F58BE0869FF00184
:100B9000879FF00D1124EE59FE4F86859785A08919
:100BA000B189C81AD90AEA0AFB0AC28AD38AE48A36
:100BB000F58AB41280C0CB01AA2009F47AC001974B
:100BC0003BE0369FF001379FF00D1124EE59FE4FA8
:100BD00028EC2587389FF001399FF00D1124EE593C
:100BE000FE4F25870E94E80281E00AC180E008C12B
:100BF000019695CF0196B8CFDB01AA2011F011978D
:100C000001C011968BE08A9FF0018B9FF00D11249B
:100C1000EE59FE4F42885388648875884B01AA209C
:100C200021F0E1E08E1A910803C0FFEF8F1A9F0AAE
:100C30008BE08A9FF0018B9FF00D1124EE59FE4F3F
:100C4000889DD001899DB00D1124AE59BE4F1E96CE
:100C50008D919D910D90BC91A02D840D951DA61D8B
:100C6000B71D801B910BA20BB30B828B938BA48BB4
:100C7000B58B9B01AA2019F02150310902C02F5FCA
:100C80003F4F5BE0569FF001579FF00D1124EE5946
:100C9000FE4F86859785A089B189529FF001539FA9
:100CA000F00D1124EE59FE4F86879787A08BB18BEC
:100CB0006CCF019685CFB58695CF8BE0829FF001F2
:100CC000839FF00D1124EE59FE4F8585883C08F076
:100CD00089CF86E1EDE6F1E0A3E8B1E001900D9265
:100CE0008A95E1F7009168011091690148012FEFA1
:100CF000821A920A909269018092680110936E01A3
:100D000000936D01AA2021F080E00E94860201C0BC
:100D10008B2D80936F01AA2029F030E020E090E035
:100D200080E004C03C2D2D2D9E2D8F2D3093700121
:100D3000209371019093720180937301109274015A
:100D400010927501109276011092770180916A01DC
:100D500090916B01009751F09C012F5F3F4F3093B2
:100D60006B0120936A01282F892F08C00E5F1F4F47
:100D70001093690100936801282D892D2093780133
:100D80008093790181E0A81619F00E94860201C0C3
:100D90008B2D80937A0191E0A91205C03C2D2D2D59
:100DA0009E2D8F2D04C030E020E090E080E0309355
:100DB0007B0120937C0190937D0180937E011092B2
:100DC0007F01109280011092810110928201809126
:100DD00068019091690128EE33E0B9010E94462331
:100DE000909369018093680180916A0190916B01F1
:100DF000B9010E94462390936B0180936A01F2CE61
:100E00000F900F900F900F90DF91CF911F910F9146
:100E1000FF90EF90DF90CF90BF90AF909F908F901A
:100E20007F906F905F904F903F9008958F929F9228
:100E3000AF92BF92CF92DF92EF92FF920F931F93E8
:100E4000CF93DF93CDB7DEB727970FB6F894DEBF09
:100E50000FBECDBF4B015C01142F1F829091150274
:100E600080911402981731F085EB91E00E942018D0
:100E700081118CC09091150280911402981350C07A
:100E8000412FC501B4010E94FD038F838091270289
:100E9000181306C080916C01806180936C0128C09A
:100EA000C12CEE24EA94012F21E0AE01495F5F4F8F
:100EB00060E185EB91E00E9425180E949E1D6B0168
:100EC0007C0181E4C80ED11CE11CF11C0E949E1D16
:100ED0006C157D058E059F0558F4E091B501F091E4
:100EE000B6010284F385E02D85EB91E00995EECF04
:100EF0008F81882381F00E9449030E949E1D6650C5
:100F00007F4F8F4F9F4F6093A3017093A4018093F5
:100F1000A5019093A60180916C018F7E80936C0156
:100F200019838A829B82AC82BD828F818E8329E95C
:100F3000A22E21E0B22EF50181915F018E3F69F46E
:100F4000C12CEE24EA940EEF26E0AE014F5F5F4F16
:100F500061E185EB91E00E942518F3EAAF16F1E01C
:100F6000BF0649F78F8127960FB6F894DEBF0FBEF4
:100F7000CDBFDF91CF911F910F91FF90EF90DF9048
:100F8000CF90BF90AF909F908F900895809127024F
:100F9000181308C0B501A40185EB91E00E94170267
:100FA0004B015C01C12CEE24EA9400E0A501940100
:100FB00061E085EB91E00E9422198823A9F085EB7E
:100FC00091E00E94201834EFE32EFF24F394082FC1
:100FD00021E0AE01495F5F4F60E185EB91E00E9447
:100FE000BA19892B09F09CCF1F829ACFCF92EF922A
:100FF0000F939091150280911402981330C0E0E98C
:10100000F1E023E030E081819281A381B481892BDA
:101010008A2B8B2B41F4215031093B972F3F8FEFC7
:10102000380789F728C080818150873CA0F78BE082
:10103000829FF001839FF00D1124EE59FE4F8FEF38
:101040009FEFDC01828B938BA48BB58B89EC85871A
:101050000E94E8020F91EF90CF900C944903C12CAD
:10106000EE24EA9400E020E040E050E069E085EB07
:1010700091E00E9425180F91EF90CF9008958CE297
:10108000EDE6F1E0DF011D928A95E9F781E090E05D
:10109000909369018093680108950E943F088AE057
:1010A000E9E9F1E0DF011D928A95E9F780E8809394
:1010B0006C013091150220911402321309C0809105
:1010C000230290912402A0912502B091260203C030
:1010D00080E090E0DC0180935E0190935F01A0933B
:1010E0006001B0936101321302C00C94490308956A
:1010F000CF92EF920F93CF93DF93EC019091150273
:1011000080911402981310C0888190916C018923FA
:10111000B1F40E943F088881807F90916C019F709C
:10112000892B80936C010BC0C12CEE24EA9400E063
:1011300021E0AE0167E085EB91E00E942518DF9188
:10114000CF910F91EF90CF900895CF92EF920F93A0
:101150003091150220911402321308C0FC018081E5
:10116000918190936301809362010BC0C12CEE24A6
:10117000EA9400E022E0AC016CE085EB91E00E9493
:1011800025180F91EF90CF900895CF92DF92EF92B4
:10119000FF920F93CF93DF9300D000D0CDB7DEB78F
:1011A00069837A838B839C839091150280911402CA
:1011B000981323C0C980DA80EB80FC80C114D1046D
:1011C000E104F10439F140E050E0BA0185EB91E02F
:1011D0000E94170228EE33E040E050E00E946E23A8
:1011E000C21AD30AE40AF50AC0926401D0926501DA
:1011F000E0926601F09267010DC0C12CEE24EA94E2
:1012000000E024E0AE014F5F5F4F6EE085EB91E0C0
:101210000E9425180F900F900F900F90DF91CF91A3
:101220000F91FF90EF90DF90CF900895CF92DF92D3
:10123000EF92FF920F931F93CF93DF93EC01909166
:1012400015028091140298131DC08FEF0E945B025B
:101250002881281301C028ECEFE6F1E080E090E05F
:10126000C180D280E380F480C114D104E104F10490
:10127000A9F03081321790F401963B9684309105A5
:1012800079F743C0C12CEE24EA9400E027E0AE01D8
:1012900062E185EB91E00E94251837C04BE0489F42
:1012A000F001499FF00D1124EE59FE4F35853213A0
:1012B0002CC009811A812B813C810C191D092E0932
:1012C0003F09C288D388E488F588C016D106E206B3
:1012D000F306D9F42D813E810196489FF001499F84
:1012E000F00D1124EE59FE4F8081918182179307F2
:1012F00061F031832083DF91CF911F910F91FF9097
:10130000EF90DF90CF900C944903DF91CF911F9124
:101310000F91FF90EF90DF90CF9008958F929F9262
:10132000AF92BF92CF92DF92EF92FF920F931F93F3
:10133000CF93DF93CDB7DEB76C970FB6F894DEBFCF
:101340000FBECDBFAA24A3949091150280911402E0
:101350009813A12CE091B501F091B6010190F081B4
:10136000E02D85EB91E00995882309F4BDC185EB5B
:1013700091E00E946816182F85EB91E00E94631699
:10138000B82E01E08FEFB81201C000E0AA2031F0C2
:1013900087EC8B1518F08B2D0E94BD02123031F5B1
:1013A00040915E0150915F01609160017091610117
:1013B000452B462B472B09F49AC08B2D0E94BD026A
:1013C00085EB91E00E940A1420915E0130915F014B
:1013D0004091600150916101C12CEE24EA940B2DE3
:1013E0006FE085EB91E00E942219EAC11F3091F471
:1013F000A1107DC084E08C8FC12CD12CE12CF12C6C
:1014000000E010E020E030E0AE01445E5F4F6EE5AA
:1014100071E05EC1113031F5002309F460C184E050
:101420008C8FC12CD12CE12CF12C00E010E020E0BD
:1014300030E0AE01445E5F4FBE016F5F7F4F85EBD2
:1014400091E00E947819182F882309F448C1698116
:101450007A818B819C814B2D0E941607882309F489
:101460003CC17DC0143009F5002309F438C182E085
:101470008C8FC12CD12CE12CF12C00E010E020E06D
:1014800030E0AE01445E5F4FBE016F5F7F4F85EB82
:1014900091E00E947819182F882309F420C16B2D40
:1014A00089819A810E946B0318C1123101F50023D2
:1014B00009F415C187E08C8FC12CD12CE12CF12CC3
:1014C00000E010E020E030E0AE01445E5F4FBE017E
:1014D0006F5F7F4F85EB91E00E947819182F88236A
:1014E00009F4FDC0CE0101960E941609F6C0A110B4
:1014F00040C01330F1F58090640190906501A09098
:101500006601B090670187E38C8FC12CD12CE12C50
:10151000F12C00E010E020E030E0AE01445E5F4FCF
:1015200062E671E085EB91E00E947819182F8091B6
:10153000640190916501A0916601B09167018816E0
:101540009906AA06BB0641F01092A3011092A401CD
:101550001092A5011092A601E12CF12C00E020E0F0
:1015600030E04AEF50E062E080E09DE00E945010E1
:10157000B4C0163031F4002309F4B1C00E943F0812
:10158000AEC0173001F5002309F4A9C081E08C8FAB
:10159000C12CD12CE12CF12C00E010E020E030E057
:1015A000AE01445E5F4FBE016F5F7F4F85EB91E000
:1015B0000E947819182F882309F491C0CE01019652
:1015C0000E9478088AC01E3011F5002309F487C0F4
:1015D00084E08C8FC12CD12CE12CF12C00E010E0A8
:1015E00020E030E0AE01445E5F4FBE016F5F7F4F91
:1015F00085EB91E00E947819182F882309F46FC0B9
:1016000069817A818B819C810E94C50866C01930EE
:1016100031F4002309F463C00E94F60760C01A3059
:1016200009F45DC01B3011F5002309F458C084E0B3
:101630008C8FC12CD12CE12CF12C00E010E020E0AB
:1016400030E0AE01445E5F4FBE016F5F7F4F85EBC0
:1016500091E00E947819182F882309F440C06B810B
:101660007C8189819A810E94C10337C01C30F1F4CA
:101670000023A9F182E08C8FC12CD12CE12CF12C1C
:1016800000E010E020E030E0AE01445E5F4FBE01BC
:101690006F5F7F4F85EB91E00E947819182F8823A8
:1016A000F1F0CE0101960E94A50817C01830B9F4D8
:1016B0008BE18C8FC12CD12CE12CF12C00E010E0BF
:1016C00020E030E0AE01445E5F4FBE016F5F7F4FB0
:1016D00085EB91E00E947819182F111171C085EBEC
:1016E00091E00E940A146CC0A1104EC00E949E1D81
:1016F0000091A3011091A4012091A5013091A601B0
:10170000061717072807390708F05AC085EB91E03C
:101710000E9420188823E9F0C12CEE24EA9400E00E
:1017200020E040E050E062E085EB91E00E94251867
:10173000882379F00E949E1D6054784D864F9F4FFC
:101740006093A3017093A4018093A5019093A601D7
:1017500037C00E949E1D6C53764F8F4F9F4F6093F2
:10176000A3017093A4018093A5019093A601E12C9D
:10177000F12C00E020E030E04AEF50E061E080E052
:101780009DE00E9450101CC00E949E1D0091A3016C
:101790001091A4012091A5013091A6010617170709
:1017A0002807390768F40E944903882349F0E12C8F
:1017B000F12C00E020E030E04AEF50E062E0DFCFC3
:1017C0006C960FB6F894DEBF0FBECDBFDF91CF9100
:1017D0001F910F91FF90EF90DF90CF90BF90AF904F
:1017E0009F908F9008950F931F9382E00E94E51EB3
:1017F000182F0E949E1D2091A801222359F111301B
:10180000D9F40091B1011091B2012091B30130914E
:10181000B401012B022B032B09F078C00091AD011C
:101820001091AE012091AF013091B001012B022B3C
:10183000032B09F063C06AC00091AD011091AE01A5
:101840002091AF013091B001012B022B032B09F045
:101850006EC065C02091A701222329F1111156C045
:101860000091B1011091B2012091B3013091B40106
:10187000012B022B032B09F05AC00091AD011091EE
:10188000AE012091AF013091B001012B022B032B4F
:1018900009F04DC06093B1017093B2018093B30120
:1018A0009093B4013CC011111DC00091AD01109185
:1018B000AE012091AF013091B001012B022B032B1F
:1018C00041F46093AD017093AE018093AF019093AA
:1018D000B0011092B1011092B2011092B3011092B6
:1018E000B40125C00091B1011091B2012091B30162
:1018F0003091B401012B022B032B41F46093B10111
:101900007093B2018093B3019093B4011092AD0132
:101910001092AE011092AF011092B00108C0609316
:10192000AD017093AE018093AF019093B0011F9110
:101930000F910895A8950C94A60F8F929F92AF9245
:10194000BF92CF92DF92EF92FF920F931F93CF93AC
:10195000DF9300D000D0CDB7DEB7082F85E10E941D
:10196000301E9C01442737FD4095542F023010F162
:10197000102F85E129833A834B835C830E94301EBC
:101980004C01AA2497FCA094BA2C29813A814B815E
:101990005C81280D391D4A1D5B1D1150113049F71E
:1019A000C02ED12CE12CF12CCA01B901A70196015E
:1019B0000E949023253F81E038074105510574F0CE
:1019C000CA01B901645F7140810991092FE030E0DB
:1019D00040E050E00E949023822F01C080E00F90F1
:1019E0000F900F900F90DF91CF911F910F91FF906B
:1019F000EF90DF90CF90BF90AF909F908F90089521
:101A0000CF93DF93D82F682F6170C1E06C2786E0F9
:101A10000E94AF1ED1FB662760F96C2785E00E940B
:101A2000AF1ED2FB662760F96C2789E0DF91CF916A
:101A30000C94AF1E61E0811101C060E084E00C9461
:101A4000AF1E8091A801811113C08091A70181115F
:101A50000FC04091B1015091B2016091B3017091FA
:101A6000B40181E0452B462B472B19F480E0089503
:101A700081E008958F929F92AF92BF92CF92DF92B2
:101A8000EF92FF920F931F930E94F30BC090B1014E
:101A9000D090B201E090B301F090B4018090AD011C
:101AA0009090AE01A090AF01B090B0018091A801DC
:101AB000811130C08091A701811126C0C114D104C9
:101AC000E104F10409F10E949E1D970186010C5367
:101AD000164F2F4F3F4F6017710782079307A0F0F3
:101AE0001092B1011092B2011092B3011092B401A0
:101AF0001092AD011092AE011092AF011092B001A0
:101B000081E08093A70166C081149104A104B1040F
:101B100009F040C08091A801811105C08091A70102
:101B2000882309F457C0C114D104E104F10409F475
:101B300051C020912F02309130028091A9019091E3
:101B4000AA01A091AB01B091AC01820F931FA11D1E
:101B5000B11DC816D906EA06FB0698F0C092A90185
:101B6000D092AA01E092AB01F092AC011092B101C7
:101B70001092B2011092B3011092B401B601C701E4
:101B80002DC01092B1011092B2011092B3011092C7
:101B9000B40120C00E949E1D24EC820E29E0921EFA
:101BA000A11CB11C681579058A059B0508F4B2CF04
:101BB0001092A7011092B1011092B2011092B301DC
:101BC0001092B4011092AD011092AE011092AF01CB
:101BD0001092B00160E070E080E090E01F910F9102
:101BE000FF90EF90DF90CF90BF90AF909F908F903D
:101BF000089581E00E94000D62E370E080E090E0D3
:101C00000E94CD1D80E00E94000D62E370E080E044
:101C100090E00C94CD1D0F931F93CF93DF9361E061
:101C200086E00E94761E61E085E00E94761E61E0FB
:101C300089E00E94761E80E00E94000D61E084E051
:101C40000E94761E80E00E941A0D8AE00E949D0C80
:101C5000853020F0873020F484E003C081E001C0AB
:101C600082E00E94000DC3E2D2E060E070E08B01F0
:101C70000F5F1F4F8EE392E00E949F0F89930B31FD
:101C8000110511F0B801F3CF809123029091240245
:101C9000A0912502B09126028F399B43AB40B847F3
:101CA00009F460C068EE73E080E090E00E94CD1D12
:101CB0008FE99BE3ABE0B8E7809323029093240283
:101CC000A0932502B09326028FE48093270282E33B
:101CD0009BEB909329028093280288E393EAA6E085
:101CE000B0E080932A0290932B02A0932C02B09331
:101CF0002D0286E080932E028EEE92E090933002C9
:101D000080932F0281E08093310284EC99E0A0E07F
:101D1000B0E08093320290933302A0933402B093E8
:101D20003502109236021092370210923802109249
:101D3000390210923A0210923B0210923C02109229
:101D40003D02C3E2D2E060E070E049918B010F5F99
:101D50001F4F8EE392E00E94A20F0B31110541F05C
:101D6000B801F3CF6CED75E080E090E00E94CD1DEE
:101D700080E00E94000D66E970E080E090E00E9443
:101D8000CD1D1092A8011092A70162E082E00E948E
:101D9000761E61E08EE00E94761E62E083E10E9482
:101DA000761E61E070E080E090E00E94CD1D8091A1
:101DB0002702883C40F483E10E94E51E61E0892B04
:101DC00019F060E001C061E06093A8018EE00E941C
:101DD000AF1E1092B1011092B2011092B301109295
:101DE000B4011092AD011092AE011092AF011092A9
:101DF000B0010E94F30B41E050E063EF7BE080E034
:101E00000E94DA1C61E08AE00E94761E61E08AE0AE
:101E10000E94AF1E61E087E00E94761E61E087E0CD
:101E20000E94AF1E61E08FE00E94761E61E08FE0AD
:101E30000E94AF1E6AE070E080E090E00E94CD1D3D
:101E400060E08FE00E94AF1E6AEF70E080E090E0FB
:101E50000E94CD1D60E083E00E94761E60E085EB6D
:101E600091E00E94FC17882309F453C06091270277
:101E700085EB91E00E94E51780912702843611F4EA
:101E80008093150283E080931D0242E068E272E0D5
:101E900085EB91E00E94051462E070E085EB91E033
:101EA0000E94CE1360912A0270912B0280912C0225
:101EB00090912D020E94CE2120E030E04AE754E4C8
:101EC0000E943A21AB01BC010DEC1CEC2CE43DE37B
:101ED00085EB91E00E94801260912E0285EB91E0EB
:101EE0000E9491138091A801811116C01092A70140
:101EF0001092B1011092B2011092B3011092B4018C
:101F00001092AD011092AE011092AF011092B0018B
:101F100003C00E94F90DA2CFDF91CF911F910F91C5
:101F2000089521E047E060E085EB91E00E94BE1754
:101F300089E091E09093B6018093B5010895CB01BB
:101F40000C94D923CB01642F0C94E1238F929F92A0
:101F5000AF92BF92CF92DF92EF92FF920F931F93B7
:101F6000CF93DF930E949E1D6B017C0100913F0285
:101F700010914002015011098DE0809FE001819F86
:101F8000D00D1124C35BDD4F8DE0982E88248394FF
:101F900017FD79C080913F029091400218161906F2
:101FA0000CF071C05E012AE0A21AB108F50140816F
:101FB000518162817381C416D506E606F70690F05A
:101FC000888181110FC0888232970190F081E02DC5
:101FD000DE0111978C910995F501C082D182E282D0
:101FE000F3824DC0FE01369780819181480F591FC1
:101FF000611D711D4C155D056E057F0508F03FC024
:102000008881882361F01882369781E0DE0111977C
:102010009C91911180E00190F081E02D0995FE01E5
:10202000349780819181A7019601280F391F411DA6
:10203000511DF5012083318342835383FE01329782
:102040008081823028F08F3FD1F08150808317C08B
:1020500080913F02909140020197909340028093BB
:102060003F02801B910B989EA001999E500D112458
:10207000BE016F5F7F4FCE010C970E94C7230150B6
:1020800011092D9785CFDF91CF911F910F91FF906F
:10209000EF90DF90CF90BF90AF909F908F9008957A
:1020A000AF92BF92CF92DF92EF92FF920F931F9366
:1020B000CF93DF93EC01162F690180913F0290913D
:1020C0004002A0E0BDE0AA2EB12CA816B9067CF40F
:1020D000BA9DF001BB9DF00D1124EF5BFD4F2081F7
:1020E00031812C173D0709F444C0AF5FECCFA3301A
:1020F00009F441C0A816B90629F40196909340024C
:1021000080933F028DE08A9DF0018B9DF00D11249C
:10211000EF5BFD4F81E04115510509F080E08487B8
:102120008DE08A9DF0018B9DF00D1124EF5BFD4F3A
:1021300057834683E114F10421F0B70180E090E079
:1021400002C00E949E1D2DE02A9DF0012B9DF00DE6
:102150001124EF5BFD4F6283738384839583028731
:10216000D186C086D183C08313870E94A60F81E0E9
:1021700003C0A33039F680E0DF91CF911F910F911A
:10218000FF90EF90DF90CF90BF90AF90089561E007
:102190008AE00E94AF1E61E08AE00E94761E8CB544
:1021A00080618CBD8CB580648CBD61E08DE00E9447
:1021B000761E61E08BE00C94761E8CB58F7B8CBD17
:1021C00008956EBD00000DB407FEFDCF8EB50895D5
:1021D0008CB580688CBD08958CB58F778CBD0895C3
:1021E0008CB5611102C0806201C08F7D8CBD0895E5
:1021F0008CB5837F682B6CBD08959CB5862F83704A
:102200009C7F892B8CBD8DB562FB662760F98E7F24
:10221000862B8DBD08950C94C7100C94DD1089E1B8
:1022200091E090936902809368020895089508955B
:10223000CF93DF93EC0161E08E810E94AF1E8FEFA0
:102240008EBD0DB407FEFDCF8B858CBD8C858DBDFD
:10225000DF91CF910895FC018CB583878DB584877C
:1022600081858CBD82858DBD60E086810C94AF1E1A
:10227000FC018DE291E0918380836683478381E056
:1022800085831482DF01A05BBF4F11961C921E92C2
:10229000129711961C921E92149611961C921E92E1
:1022A0003383228381E090E0968785870895EF92BB
:1022B000FF920F931F93CF93DF931F92CDB7DEB79B
:1022C0007C011FB7F894DC01ED91FC910084F1854D
:1022D000E02D69830995F70182819381DC01ED91FD
:1022E000FC9169816F770190F081E02D0995F701EC
:1022F00082819381DC01ED91FC910190F081E02DD0
:1023000060E00995082FD701ED91FC910680F781D7
:10231000E02DC70109951FBF802F0F90DF91CF914E
:102320001F910F91FF90EF900895EF92FF921F93EE
:10233000CF93DF9300D0CDB7DEB77C011FB7F89401
:10234000DC01ED91FC910084F185E02D4A836983E5
:102350000995F70182819381DC01ED91FC916981FE
:1023600060680190F081E02D0995F70182819381E9
:10237000DC01ED91FC910190F081E02D4A81642F08
:102380000995D701ED91FC910680F781E02DC701F9
:1023900009951FBF0F900F90DF91CF911F91FF9074
:1023A000EF90089540E867E00E94951162E070E0C8
:1023B00080E090E00C94CD1DCF92DF92EF92FF92DF
:1023C0000F931F93CF93DF9300D01F92CDB7DEB74B
:1023D0006C01E22EFFB6F894DC01ED91FC910084D3
:1023E000F185E02D4A835B8369830995F60182813B
:1023F0009381DC01ED91FC9169816F770190F0810F
:10240000E02D09954A81042F5B81152FE40EE0161B
:1024100079F0F60182819381DC01ED91FC910190CC
:10242000F081E02D60E00995F80181938F01EFCFF5
:10243000D601ED91FC910680F781E02DC60109954A
:10244000FFBE0F900F900F90DF91CF911F910F91D2
:10245000FF90EF90DF90CF900895CF92DF92EF92B0
:10246000FF920F931F93CF93DF9300D01F92CDB7AE
:10247000DEB76C01E22EFFB6F894DC01ED91FC9121
:102480000084F185E02D4A835B8369830995F60119
:1024900082819381DC01ED91FC91698160680190FA
:1024A000F081E02D09954A81042F5B81152FE40E00
:1024B000E01671F0F60182819381D8016D918D0152
:1024C000DC01ED91FC910190F081E02D0995F0CFB8
:1024D000D601ED91FC910680F781E02DC6010995AA
:1024E000FFBE0F900F900F90DF91CF911F910F9132
:1024F000FF90EF90DF90CF90089562E00C94571119
:102500006F927F928F929F92AF92BF92CF92DF9203
:10251000EF92FF920F931F93CF93DF9300D000D0E1
:10252000CDB7DEB73C016A017B014801590120E0CB
:1025300030E040E753E4C701B6010E94362187FD31
:10254000BAC020E030E040E754E4C701B6010E9481
:10255000D32218160CF4AFC020E030E040EF53E473
:10256000C701B6010E94D32220E030E0A90187FD17
:102570002EC0C501B4010E94362187FD9CC023E313
:1025800033E343EA5EE3C501B4010E94D322181687
:102590000CF491C020E030E040E05FE3C701B601F9
:1025A0000E94D7226B017C0120E034E244E759E429
:1025B000C501B4010E94D72220E030E44CE954E484
:1025C0000E943A210E94A221B62E00E623C0C50136
:1025D000B4010E94362187FD6EC023E333E343E25A
:1025E0005EE3C501B4010E94D32218160CF463C047
:1025F00020E034E244E759E4C501B4010E94D72247
:1026000020E030E44CE154E40E943A210E94A221EF
:10261000B62E00E420E030E040E251E4C701B6010C
:102620000E943A216B017C010E940B229B01AC01AC
:1026300029833A834B835C830E94A221162F185171
:10264000102B29813A814B815C81C701B6010E9420
:10265000D12020E030E04AE757E40E94D7220E94D0
:10266000A221062F40E063E7C30179830E94951100
:1026700040E064E7C3010E949511412F65E7C30163
:102680000E9495117981472F66E7C3010E94951139
:10269000402F67E7C3010E9495114B2D6AE2C301E9
:1026A0000E949511C3010E947D1283FB882780F947
:1026B00091E0892701C080E00F900F900F900F905C
:1026C000DF91CF911F910F91FF90EF90DF90CF900E
:1026D000BF90AF909F908F907F906F900895462FFE
:1026E00067E00C949511CF93DF93EC018C818130DE
:1026F00039F06D816460CE010E946F1381E08C839C
:10270000DF91CF910895CF93DF93EC01C45BDF4F4E
:102710002881211102C00E9473138881DF91CF911B
:102720000895462F6DE60C9495110F931F93CF9348
:10273000DF93EC018B01FB0140816CE10E9495115C
:10274000F80141816FE1CE010E949511A8014E5F11
:102750005F4F26E060E2CE010E942D12A801485F83
:102760005F4F23E06CE2CE010E942D12F8014385F9
:1027700068E5CE010E949511F801448569E6CE0115
:102780000E949511A801435F5F4F25E06EE6CE01E0
:10279000DF91CF911F910F910C942D120F931F93E6
:1027A000CF93DF93CDB7DEB762970FB6F894DEBF55
:1027B0000FBECDBF8C016C317105B8F482E1869FEC
:1027C0009001879F300D112428593F4F42E150E07E
:1027D000B901CE0101960E94B523BE016F5F7F4F04
:1027E000C8010E94951381E001C080E062960FB697
:1027F000F894DEBF0FBECDBFDF91CF911F910F9137
:102800000895462F64E30C949511242FAB0166E3E1
:102810000C942D122FB7F894FC011786E45BFF4F40
:1028200010822FBF0895FC0124812230E1F3089526
:10283000DF92EF92FF920F931F93CF93DF93EC0100
:102840007B018A01E881F9810190F081E02D0995F1
:102850008823C1F0DFB6F8948F85F801908189173D
:1028600010F48F858083F801408150E0BE01605FE5
:102870007F4FC7010E94BE23CE010E940A14DFBE13
:1028800081E001C080E0DF91CF911F910F91FF9017
:10289000EF90DF9008952FB7F894FC011786E35B63
:1028A000FF4F10822FBF08950F931F93CF93DF9395
:1028B000EC01142F8F8550E09A01280F311D283329
:1028C000310578F40FB7F8948F8590E040968C0F1F
:1028D0009D1F0E94BE238F85810F8F870FBF81E0D0
:1028E00001C080E0DF91CF911F910F9108950F9368
:1028F0001F93CF93DF9300D01F92CDB7DEB78C012B
:102900004B8369837A830E944B144B8169817A815E
:10291000442351F0C8010F900F900F90DF91CF9199
:102920001F910F910C94541480E00F900F900F9012
:10293000DF91CF911F910F9108951F93CF93DF9354
:10294000EC01C35BDF4F3881FC012785321798F417
:1029500017852881121B1C3308F01BE3488150E0C7
:10296000405F5F4F480F591F212F6FE70E942D12C4
:102970008881810F8883DF91CF911F910895CF9334
:10298000DF93EC018F8581110EC04F8550E0405FD1
:102990005F4F4C0F5D1F27E36FE7CE010E94DC11F4
:1029A0008F85895C8F87DF91CF910895CF93DF93D7
:1029B000EC0143E068E00E94951140E068E0CE0140
:1029C000DF91CF910C949511CF93DF93EC0142E00E
:1029D00068E00E94951140E068E0CE01DF91CF9160
:1029E0000C949511CF93DF93EC018C81823061F0D0
:1029F0006D816860CE010E946F1382E08C83CE01EE
:102A0000DF91CF910C94E414DF91CF910895CF938F
:102A1000DF93EC010E949D144F856EE3CE010E946E
:102A20009511CE01DF91CF910C94F214FC01148228
:102A3000E35BFF4F10820C940715EF92FF921F93F8
:102A4000CF93DF9300D01F92CDB7DEB77C014B83CD
:102A500069837A830E9413141FB7F8944B816981AC
:102A60007A81C7010E947714882329F0C7010E9448
:102A7000071581E001C080E01FBF0F900F900F90FD
:102A8000DF91CF911F91FF90EF900895FF920F93E8
:102A90001F93CF93DF9300D0CDB7DEB78C0122E038
:102AA000AE014F5F5F4F63E00E94DC11898187FFB9
:102AB00013C0C8010E94D614D80114968C9182309C
:102AC00021F4C8010E94161507C0F80184818130E5
:102AD00019F4C8010E940A14898185FF03C0C80146
:102AE0000E949D14898184FF03C0C8010E94BF1405
:102AF000898183FF08C0D801ED91FC910280F381A8
:102B0000E02DC80109958A8183FF08C0D801ED91A5
:102B1000FC910480F581E02DC8010995298122FFEF
:102B20000AC0F801EE5AFF4F80819181019691838E
:102B30008083F801148221FF56C06BE4C8010E9413
:102B40005711F82EF7E3F81708F47DC0D8011F9647
:102B50008C91F81608F477C0D8011F968C911F97B6
:102B60001F964C912F2D281B50E0405F5F4F400F68
:102B7000511F6FE7C8010E94DC1167E4C8010E9481
:102B80005711F801E95BFF4F808368E4C8010E9498
:102B90005711F801E85BFF4F808369E4C8010E9488
:102BA0005711F801E75BFF4F80836AE4C8010E9478
:102BB0005711F801E65BFF4F808336962081318103
:102BC0002F5F3F4F31832083F801F78614820E94E4
:102BD0009E1DF801EC5AFF4F6083718382839383BB
:102BE00081E038978083898180FF1CC0F801E25B17
:102BF000FF4F80819181019691838083C8010E945B
:102C00000A14C8010E94E414F801148284818130FE
:102C100049F065816460C8010E946F1381E0D801AA
:102C200014968C938A8186FF1BC066E2C8010E94BD
:102C3000571186958857F801E85AFF4F8083C801DD
:102C40000E94E4140AC0F801E25BFF4F8081918189
:102C5000019691838083F8011482C8010E940A14AE
:102C60000F900F90DF91CF911F910F91FF900895DA
:102C700080916A0290916B02009711F00C944615B6
:102C8000089580916C0290916D02009711F00C9460
:102C90004615089580916E0290916F02009711F091
:102CA0000C9446150895462F6AE30C949511462F0F
:102CB0006BE30C949511462F6CE30C949511462F01
:102CC0006DE30C949511885B9F4FFC018081089502
:102CD000875B9F4FFC0180810895865B9F4FFC01BD
:102CE00080810895FC01E55BFF4F608341E0611145
:102CF00040E0419563E40C9495110F931F93CF939B
:102D0000DF9300D0CDB7DEB78C0160E170E080E0EA
:102D100090E00E94CD1D61E0D80116968C910E9432
:102D2000761E61E0F80186810E94AF1ED8011296DE
:102D30008D919C911397DC01ED91FC910680F781B8
:102D4000E02D0995F80182819381DC01ED91FC91E0
:102D50000484F585E02D60E00995F8018281938176
:102D6000DC01ED91FC910284F385E02D61E0099591
:102D7000F80182819381DC01ED91FC910684F78555
:102D8000E02D61E009958CB5F80181878DB58287CA
:102D9000C8010E94D21160E0C8010E945711D801F9
:102DA00018968C9318978750823008F0AFC017960A
:102DB0008C91811109C010936B0200936A0242E06A
:102DC00050E068E376E116C0813049F410936D025B
:102DD00000936C0242E050E061E476E10BC0823087
:102DE00009F094C010936F0200936E0242E050E02D
:102DF0006AE476E10E94DA1CC8010E944B14C80103
:102E00000E940A1444E06DE7C8010E94951147E34F
:102E10006EE7C8010E949511F801458543704C6822
:102E200060E3C8010E94951148E862E3C8010E946E
:102E3000951142E463E3C8010E94951168E0C8015E
:102E40000E9401148DE2898384ED8A8342E0BE01F1
:102E50006F5F7F4FC8010E94051460E0C8010E94A7
:102E6000721640E06FE3C8010E94951160E0C8014E
:102E70000E94531660E0C8010E94571660E0C80126
:102E80000E945B1660E0C8010E945F1642E16BE0A1
:102E9000C8010E94951145E16CE0C8010E9495119E
:102EA00047EB65E0C8010E94951140E466E0C80167
:102EB0000E94951140E063E7C8010E94951140E02F
:102EC00064E7C8010E94951143E565E7C8010E94C7
:102ED000951144E666E7C8010E94951140E067E756
:102EE000C8010E94951140E56AE2C8010E9495114F
:102EF000C8010E947D1263E070E0C8010E94CE13F9
:102F000063E0C8010E94911381E001C080E00F904E
:102F10000F90DF91CF911F910F91089508958F9297
:102F20009F92AF92BF92CF92DF92EF92FF92CF9398
:102F3000DF93EC014A015B010E949E1D6B017C0145
:102F4000C80CD91CEA1CFB1C0E949E1D6C157D053B
:102F50008E059F0540F4E881F9810284F385E02D18
:102F6000CE010995F1CFDF91CF91FF90EF90DF90E7
:102F7000CF90BF90AF909F908F9008951F93CF9365
:102F8000DF93EC01162F642F422F28E632E00E94D7
:102F900038118BE391E099838883FE01E15AFF4F5A
:102FA0001083319610823C97108211821282138214
:102FB000749683E08083CE59DF4F8AEF90E0998347
:102FC0008883DF91CF911F9108950F931F93CF9323
:102FD000DF93EC01462F8C01015A1F4FF8016083EB
:102FE0006FE30E949511F8016081CE01DF91CF91CE
:102FF0001F910F910C945716EF92FF920F931F930E
:10300000CF93DF93EC01E62E0E947D16F82E8823E5
:1030100079F08E01015A1F4FF8016081CE010E94A4
:10302000E517EE2029F0C05ADF4FF8018081888330
:103030008F2DDF91CF911F910F91FF90EF90089509
:10304000805A9F4FFC01808108952F923F924F92AA
:103050005F926F927F928F929F92AF92BF92CF9228
:10306000DF92EF92FF920F931F93CF93DF9300D0E5
:1030700000D01F92CDB7DEB73C016D832A01F22E3E
:103080002FEFE21205C0FC01E859FF4FE080E39406
:10309000011104C0F301E05AFF4F00818C2D8064C0
:1030A000D82E1301A2E62A0E311CEE2021F00F3F8C
:1030B00011F06D2D01C06C2DC3010E945F166D8152
:1030C000C3010E945B16602FC3010E945316FF20AC
:1030D00019F04F2DB20104C041E0BE016B5F7F4F7C
:1030E000C3010E941D15182FC3010E941314111152
:1030F00002C010E039C0EE20B9F10F3FA9F10E94E3
:103100009E1D4B015C01F10180819181880E991E09
:10311000A11CB11C0E949E1D681579058A059B059E
:10312000F8F4D301ED91FC910190F081E02DC30101
:103130000995882379F3C3010E946D1687FF30C07B
:10314000C3010E9468169D8189132AC0C3010E9491
:103150006316801325C0C3010E940A1411E004C045
:10316000EA9409F0A2CFC5CFF301E05AFF4F908156
:103170003197808198134DC00E949E1D5301B4E683
:10318000AB0EB11CF501C080D180E280F380C61681
:10319000D706E806F906E8F58D818F3F29F439C096
:1031A000C3010E940A14B6CF41E450E060E070E031
:1031B000C3010E948F1760E0C3010E945F166EEF8B
:1031C000C3010E945B166FEFC3010E94531640E0DB
:1031D00050E0BA01C3010E94170269837A838B838E
:1031E0009C8344E0BE016F5F7F4FC3010E941D15A9
:1031F000882379F00E949E1D605C7E4D8F4F9F4F0B
:10320000D5016D937D938D939C931397C3010E9479
:103210001314812F0F900F900F900F900F90DF914C
:10322000CF911F910F91FF90EF90DF90CF90BF90C3
:10323000AF909F908F907F906F905F904F903F9056
:103240002F900895CF92EF920F93CF93DF9300D0FA
:1032500000D0CDB7DEB729833A834B835C8324E06B
:10326000AE014F5F5F4F0E9425180F900F900F9097
:103270000F90DF91CF910F91EF90CF900895CF9263
:10328000EF920F93CE2CE12C0E9425180F91EF9016
:10329000CF900895CF92EF920F93CF93DF9300D00A
:1032A00000D0CDB7DEB729833A834B835C83CE2C25
:1032B000E12C24E0AE014F5F5F4F0E9425180F9074
:1032C0000F900F900F90DF91CF910F91EF90CF90D3
:1032D0000895CF92EF920F93C22EE12C042F20E09D
:1032E00040E050E00E9425180F91EF90CF90089594
:1032F000AF92BF92CF92DF92EF92FF920F931F9304
:10330000CF93DF93EC0159010E941814882321F117
:10331000A114B10431F0FE01E85BFF4F8081F5019B
:1033200080830115110531F0FE01E95BFF4F8081BB
:10333000F8018083E114F10431F0FE01E75BFF4FF7
:103340008081F7018083C114D10441F0C65BDF4F57
:103350008881F601808302C080E001C081E0DF91B6
:10336000CF911F910F91FF90EF90DF90CF90BF9082
:10337000AF9008956F927F928F929F92AF92BF927B
:10338000CF92DF92EF92FF920F931F93CF93DF9331
:1033900000D0CDB7DEB75C01162F4A013701E1142A
:1033A000F10429F4FC01EE59FF4F608071802A83FB
:1033B0000E949E1D6B017C01C60CD71CE11CF11CF8
:1033C0002A81211101C021E029830E949E1D6C15D4
:1033D0007D058E059F05D8F4C5010E9483138823BF
:1033E000E1F0AE014F5F5F4FB401C5010E941814B8
:1033F000882399F0C5010E94681681130EC00F3F03
:1034000049F0C5010E946316081307C003C080E09D
:1034100090E00CC0898190E009C0D501ED91FC914C
:103420000284F385E02DC5010995CFCF0F900F9051
:10343000DF91CF911F910F91FF90EF90DF90CF9090
:10344000BF90AF909F908F907F906F9008958F92D4
:103450009F92AF92BF92CF92DF92EF92FF920F9323
:103460001F93CF93DF9300D0CDB7DEB78C01962E9C
:10347000842E59012115310529F4FC01EE59FF4F25
:10348000A080B18081E089830E949E1D6B017C0138
:10349000CA0CDB1CE11CF11C0E949E1D6C157D05F5
:1034A0008E059F0508F5C8010E9483138823F1F05B
:1034B000AE014F5F5F4FBE016E5F7F4FC8010E943C
:1034C0001814882399F0C8010E94681689110EC04B
:1034D0008FEF881629F0C8010E946316881206C073
:1034E00081E09A81991559F080E009C0D801ED91E9
:1034F000FC910284F385E02DC8010995CDCF0F9092
:103500000F90DF91CF911F910F91FF90EF90DF907F
:10351000CF90BF90AF909F908F9008952F923F9241
:103520004F925F926F927F929F92AF92BF92CF9293
:10353000DF92EF92FF920F931F93CF93DF93CDB75C
:10354000DEB76B970FB6F894DEBF0FBECDBF6C0130
:103550000E948313F82EF601E55BFF4F80818111F5
:1035600038C0560101E6A00EB11CD5018C9180FD3A
:1035700030C0F501808181608083FF2009F4C7C0DD
:103580003601B7E46B0E711C8601015A1F4FF3011F
:103590009081D8018C919601275B3F4F981721F1BC
:1035A000F90180818E3F09F490C008F05CC08C3F27
:1035B00089F1F601EC5AFF4F80819181A281B3819C
:1035C000892B8A2B8B2B09F0A4C0D5018C918E7F7F
:1035D0008C93F110D6C1D601ED91FC910284F38554
:1035E000E02DC6010995CDC13396808186FFD8CFE5
:1035F0001B972D903D904D905C9013977F96408146
:10360000518162817381241635064606570609F0FA
:10361000D5C0C6CF40E050E0BA01C6010E941702F3
:10362000672B682B692BD9F0D8018C91F601E05AF1
:10363000FF4F9081981771F06AE00E943A23482F5B
:1036400050E04F5B5F4F662757FD6095762FC601B0
:103650000E948F17F8018081D3018C9304C0C601AA
:103660000E940A14A6CFC6010E940A14F8018081A4
:10367000F601E05AFF4F9081981721F0D3019C91F9
:103680009813D0C013E03601B8E46B0E711CF3013F
:10369000008140E050E0BA01C6010E9417029B0180
:1036A000AC01E12C6FEFC6010E944A19882379F121
:1036B000113069F120E030E0D3014C916FEFC60189
:1036C0000E94271A882319F1B5C0F601E05AFF4F6E
:1036D0009081F80180819817B9F084E0898FAE015C
:1036E000475E5F4FBE016F5F7F4FC6010E94181497
:1036F000882369F089819A81AB81BC81892B8A2BCF
:103700008B2B09F099C003C0C6010E940A14F12C4A
:1037100050CFF1105ACF3C96908131978081981705
:1037200009F453CF349780819181A281B381892B91
:103730008A2B8B2B09F049CF3996408051806280CB
:103740007380BCED4B0EB5E05B1E611C711C0E94CA
:103750009E1D461657066806790608F036CF0E9469
:103760009E1DF601EC59FF4F608371838283938322
:10377000412C55245A9410E03601E4E56E0E711C7C
:1037800020E0452D6FEFC6010E946919882309F4D6
:103790009FC0E12CF12C052D24E041E050E04C0FBE
:1037A0005D1FF4E04F9E400D511D11246FEFC601C7
:1037B0000E94BA19049709F08BC092C08D919D9117
:1037C0000D90BC91A02D80839183A283B383D901F6
:1037D0006C91C6012A8F3B8F0E945B1660E8C60180
:1037E0000E945F16F601E85BFF4F6081C6010E94F0
:1037F00053169FB6F894F601E78481E08787E35B70
:10380000FF4F1082C6010E9407159FBEC6010E948D
:1038100013148FB7F894D6011F96EC928FBF2A8DA0
:103820003B8DBECE46E851E060E070E0C6010E94EC
:103830008F176DCF11502BCFF601EC5AFF4F4081FF
:10384000518162817381C6010E941702F601E75A15
:10385000FF4F20813181621B730B8109910909811E
:103860001A812B813C81601B710B820B930B2B0106
:103870003C01BAE04B0E511C611C711C8601055ABB
:103880001F4FE5E14E16510461047104D0F4D801D4
:103890004D905D906D907C904114510461047104D1
:1038A00081F022E030E040E050E00E949023421A94
:1038B000530A640A750AF801408251826282738257
:1038C00026CFD8011D921D921D921C92139747CFAF
:1038D0001F5F143008F053C0442009F451CF4FC08B
:1038E00001E0040DFFEF5F1204C0C6010E946316E1
:1038F000582E43944394F30180819181A281B38136
:10390000E1E0F0E0EC0FFD1F24E0029FE00DF11D6F
:10391000112480839183A283B38335E0341508F0AA
:103920002FCFF601E05AFF4F508249895A896B899F
:103930007C8989859A85AB85BC858A019B01081B9A
:10394000190B2A0B3B0BD901C801B695A795979582
:1039500087953797918380830D891E892F89388DAC
:10396000401B510B620B730BAA27BB27480F591F33
:103970006A1F7B1F32964083518362837383F12CCD
:1039800024CE8F2D6B960FB6F894DEBF0FBECDBF41
:10399000DF91CF911F910F91FF90EF90DF90CF902B
:1039A000BF90AF909F907F906F905F904F903F90AF
:1039B0002F9008958230E8F4E82FF0E0EE0FFF1F1B
:1039C000E059FD4F71836083813041F0809169003F
:1039D0008C7F842B80936900E89A08958091690018
:1039E000440F551F440F551F837F842B809369001C
:1039F000E99A08951F920F920FB60F9211242F93F8
:103A00003F934F935F936F937F938F939F93AF9366
:103A1000BF93EF93FF938091700290917102892B75
:103A200029F0E0917002F09171020995FF91EF91F8
:103A3000BF91AF919F918F917F916F915F914F91C6
:103A40003F912F910F900FBE0F901F9018951F92CE
:103A50000F920FB60F9211242F933F934F935F93C2
:103A60006F937F938F939F93AF93BF93EF93FF9346
:103A70008091720290917302892B29F0E091720279
:103A8000F09173020995FF91EF91BF91AF919F91D2
:103A90008F917F916F915F914F913F912F910F90F7
:103AA0000FBE0F901F9018951F920F920FB60F9296
:103AB00011242F933F938F939F93AF93BF93809144
:103AC000750290917602A0917702B09178023091C0
:103AD000740226E0230F2D3720F40296A11DB11D9C
:103AE00005C029E8230F0396A11DB11D2093740280
:103AF0008093750290937602A0937702B093780238
:103B00008091790290917A02A0917B02B0917C021F
:103B10000196A11DB11D8093790290937A02A09322
:103B20007B02B0937C02BF91AF919F918F913F91A7
:103B30002F910F900FBE0F901F9018952FB7F894EC
:103B4000609175027091760280917702909178026F
:103B50002FBF08953FB7F8948091790290917A022F
:103B6000A0917B02B0917C0226B5A89B05C02F3F97
:103B700019F00196A11DB11D3FBF6627782F892F2F
:103B80009A2F620F711D811D911D43E0660F771FF3
:103B9000881F991F4A95D1F70895CF92DF92EF922F
:103BA000FF92CF93DF936B017C010E94AA1DEB0172
:103BB000C114D104E104F10489F00E94D0200E94D4
:103BC000AA1D6C1B7D0B683E734090F381E0C81A00
:103BD000D108E108F108C851DC4FEACFDF91CF915D
:103BE000FF90EF90DF90CF900895789484B5826035
:103BF00084BD84B5816084BD85B5826085BD85B591
:103C0000816085BDEEE6F0E0808181608083E1E83F
:103C1000F0E0108280818260808380818160808377
:103C2000E0E8F0E0808181608083E1EBF0E080817A
:103C300084608083E0EBF0E0808181608083EAE74C
:103C4000F0E08081846080838081826080838081D5
:103C5000816080838081806880831092C100089594
:103C60008E3008F08E5087702091040190E4299FD7
:103C700090011124822B80937C0080917A008064D3
:103C800080937A0080917A0086FDFCCF8091780045
:103C90002091790090E0922B0895833081F028F4F0
:103CA000813099F08230A1F008958730A9F08830F2
:103CB000B9F08430D1F4809180008F7D03C0809171
:103CC00080008F7780938000089584B58F7702C03D
:103CD00084B58F7D84BD08958091B0008F7703C037
:103CE0008091B0008F7D8093B0000895CF93DF93D3
:103CF00090E0FC01EE59FD4F2491FC01EA58FD4F84
:103D00008491882349F190E0880F991FFC01E256C5
:103D1000FD4FA591B4918C569D4FFC01C591D49156
:103D20009FB7611108C0F8948C91209582238C93E1
:103D3000888182230AC0623051F4F8948C91322F2A
:103D4000309583238C938881822B888304C0F894D8
:103D50008C91822B8C939FBFDF91CF9108950F930D
:103D60001F93CF93DF931F92CDB7DEB7282F30E09C
:103D7000F901E25BFD4F8491F901EE59FD4F149179
:103D8000F901EA58FD4F04910023C9F0882321F07E
:103D900069830E944D1E6981E02FF0E0EE0FFF1F46
:103DA000EC56FD4FA591B4919FB7F8948C91611199
:103DB00003C01095812301C0812B8C939FBF0F906E
:103DC000DF91CF911F910F910895CF93DF93282F0B
:103DD00030E0F901E25BFD4F8491F901EE59FD4FAE
:103DE000D491F901EA58FD4FC491CC2391F081118F
:103DF0000E944D1EEC2FF0E0EE0FFF1FE657FD4F27
:103E0000A591B4912C912D2381E090E021F480E0E4
:103E100002C080E090E0DF91CF910895FC01818D98
:103E2000228D90E0805C9F4F821B910960E470E0DE
:103E30000E945A230895FC01918D828D981731F0CC
:103E4000828DE80FF11D858D90E008958FEF9FEF33
:103E50000895FC01918D828D981761F0828DDF01AC
:103E6000A80FB11D5D968C91928D9F5F9F73928F6D
:103E700090E008958FEF9FEF08958BE490E2892BF7
:103E800049F080E090E0892B29F00E944B208111BD
:103E90000C9400000895FC01848DDF01A80FB11D72
:103EA000A35ABF4F2C91848D90E001968F73992770
:103EB000848FA689B7892C93A089B1898C9180645D
:103EC0008C93938D848D981306C00288F389E02D1E
:103ED00080818F7D80830895CF93DF93EC01888D5F
:103EE0008823C9F0EA89FB89808185FD05C0A889FE
:103EF000B9898C9186FD0FC00FB607FCF5CF808184
:103F000085FFF2CFA889B9898C9185FFEDCFCE01CD
:103F10000E944B1FE7CFDF91CF910895CF92DF92A0
:103F2000FF920F931F93CF93DF931F92CDB7DEB70E
:103F30006C01DC015B969C915B975C968C915C9725
:103F4000981307C05096ED91FC915197808185FDA3
:103F500032C0F601038D10E00F5F1F4F0F73112762
:103F6000F02EF601848DF81211C00FB607FCF9CFC0
:103F7000D6015096ED91FC915197808185FFF1CF4C
:103F8000C60169830E944B1F6981EBCF838DE80FC7
:103F9000F11DE35AFF4F6083D6015B960C935B974C
:103FA0005296ED91FC91539780818062808381E0ED
:103FB00058968C930DC0D6015696ED91FC9157976B
:103FC00060835096ED91FC9151978081806480834D
:103FD00081E090E00F90DF91CF911F910F91FF90C2
:103FE000DF90CF9008951F920F920FB60F92112479
:103FF0002F938F939F93EF93FF93E0918D02F09116
:104000008E028081E0919302F091940282FD12C0B1
:104010009081809196028F5F8F7320919702821713
:1040200051F0E0919602F0E0E358FD4F958F8093B8
:10403000960201C08081FF91EF919F918F912F9106
:104040000F900FBE0F901F9018951F920F920FB6F2
:104050000F9211242F933F934F935F936F937F930E
:104060008F939F93AF93BF93EF93FF938DE792E06E
:104070000E944B1FFF91EF91BF91AF919F918F9144
:104080007F916F915F914F913F912F910F900FBE54
:104090000F901F9018958DE792E00E940E1F21E06F
:1040A000892B09F420E0822F08951092800210924B
:1040B0007F0288EE93E0A0E0B0E0809381029093CD
:1040C0008202A0938302B09384028BE491E09093E8
:1040D0007E0280937D0285EC90E090938A0280932B
:1040E000890284EC90E090938C0280938B0280ECA8
:1040F00090E090938E0280938D0281EC90E09093FB
:10410000900280938F0282EC90E0909392028093D1
:10411000910286EC90E09093940280939302109227
:1041200096021092970210929802109299020895A6
:1041300008950E94F51D0E9498200E949701CDE3EA
:10414000DFE10E94A9012097E1F30E943D1FF9CF12
:10415000CF92DF92EF92FF920F931F93CF93DF9353
:104160006C017A01EB01E60EF71E00E010E0CE15BF
:10417000DF0561F06991D601ED91FC910190F0812C
:10418000E02DC6010995080F191FF1CFC801DF9175
:10419000CF911F910F91FF90EF90DF90CF900895F6
:1041A00008955058BB27AA270ED0ACC19DD130F03E
:1041B000A2D120F031F49F3F11F41EF492C10EF40D
:1041C000E095E7FB5FC1E92FAED180F3BA17620734
:1041D00073078407950718F071F49EF5DDC10EF49E
:1041E000E0950B2EBA2FA02D0B01B90190010C0107
:1041F000CA01A0011124FF27591B99F0593F50F41F
:10420000503E68F11A16F040A22F232F342F442776
:10421000585FF3CF469537952795A795F04053956E
:10422000C9F77EF41F16BA0B620B730B840BBAF03E
:104230009150A1F0FF0FBB1F661F771F881FC2F7A9
:104240000EC0BA0F621F731F841F48F487957795BD
:104250006795B795F7959E3F08F0B3CF9395880F74
:1042600008F09927EE0F979587950895E7D008F401
:1042700081E008950CD046C13ED140F035D130F0F8
:1042800021F45F3F19F0FEC0511187C12AC14BD103
:1042900098F39923C9F35523B1F3951B550BBB270D
:1042A000AA2762177307840738F09F5F5F4F220FBA
:1042B000331F441FAA1FA9F333D00E2E3AF0E0E8B3
:1042C00030D091505040E695001CCAF729D0FE2FFF
:1042D00027D0660F771F881FBB1F26173707480791
:1042E000AB07B0E809F0BB0B802DBF01FF27935847
:1042F0005F4F2AF09E3F510568F0C4C04EC15F3F3A
:10430000ECF3983EDCF3869577956795B795F7952E
:104310009F5FC9F7880F911D9695879597F9089526
:10432000E1E0660F771F881FBB1F621773078407C2
:10433000BA0720F0621B730B840BBA0BEE1F88F7D1
:10434000E0950895F8D088F09F5790F0B92F9927FD
:10435000B751A0F0D1F0660F771F881F991F1AF090
:10436000BA95C9F712C0B13081F016D1B1E0089505
:1043700013C1672F782F8827B85F39F0B93FCCF386
:10438000869577956795B395D9F73EF49095809586
:10439000709561957F4F8F4F9F4F0895E89409C0A6
:1043A00097FB3EF490958095709561957F4F8F4F68
:1043B0009F4F9923A9F0F92F96E9BB279395F6957E
:1043C000879577956795B795F111F8CFFAF4BB0FFC
:1043D00011F460FF1BC06F5F7F4F8F4F9F4F16C060
:1043E000882311F096E911C0772321F09EE8872FEA
:1043F000762F05C0662371F096E8862F70E060E0A6
:104400002AF09A95660F771F881FDAF7880F96951E
:10441000879597F90895A9D080F09F3740F49111BE
:104420000EF0BBC060E070E080E89FEB089526F4DA
:104430001B16611D711D811D2BC045C0990F000801
:10444000550FAA0BE0E8FEEF16161706E807F90766
:10445000C0F012161306E407F50798F0621B730B01
:10446000840B950B39F40A2661F0232B242B252B82
:1044700021F408950A2609F4A140A6958FEF811D25
:10448000811D089597F99F6780E870E060E00895C6
:10449000882371F4772321F09850872B762F07C05B
:1044A000662311F499270DC09051862B70E060E0CF
:1044B0002AF09A95660F771F881FDAF7880F96956E
:1044C000879597F908959F3F31F0915020F4879593
:1044D00077956795B795880F911D9695879597F96C
:1044E00008959FEF80EC089500240A94161617068D
:1044F00018060906089500240A94121613061406D5
:1045000005060895092E0394000C11F4882352F037
:10451000BB0F40F4BF2B11F460FF04C06F5F7F4FEF
:104520008F4F9F4F089557FD9058440F551F59F0D6
:104530005F3F71F04795880F97FB991F61F09F3F90
:1045400079F087950895121613061406551FF2CFB9
:104550004695F1DF08C0161617061806991FF1CF09
:1045600086957105610508940895E5DFA0F0BEE722
:10457000B91788F4BB279F3860F41616B11D672F52
:10458000782F8827985FF7CF869577956795B11D27
:1045900093959639C8F30895E894BB276627772743
:1045A000CB0197F908954ADF08F48FEF08950BD0F7
:1045B000A9CF9ADF28F09FDF18F0952309F062CF8A
:1045C00090CF1124EACFAFDFA0F3959FD1F3950FE1
:1045D00050E0551F629FF001729FBB27F00DB11D87
:1045E000639FAA27F00DB11DAA1F649F6627B00D17
:1045F000A11D661F829F2227B00DA11D621F739F00
:10460000B00DA11D621F839FA00D611D221F749F0D
:104610003327A00D611D231F849F600D211D822F54
:10462000762F6A2F11249F5750408AF0E1F088239B
:104630004AF0EE0FFF1FBB1F661F771F881F9150A8
:104640005040A9F79E3F510570F01CCFA6CF5F3FA9
:10465000ECF3983EDCF3869577956795B795F795DB
:10466000E7959F5FC1F7FE2B880F911D9695879563
:1046700097F90895991B79E004C0991F961708F0DF
:10468000961B881F7A95C9F780950895AA1BBB1BB6
:1046900051E107C0AA1FBB1FA617B70710F0A61B42
:1046A000B70B881F991F5A95A9F780959095BC0163
:1046B000CD01089597FB072E16F4009407D077FDDF
:1046C00009D00E94462307FC05D03EF490958195C1
:1046D0009F4F0895709561957F4F0895A1E21A2E1E
:1046E000AA1BBB1BFD010DC0AA1FBB1FEE1FFF1F96
:1046F000A217B307E407F50720F0A21BB30BE40BE6
:10470000F50B661F771F881F991F1A9469F760952C
:104710007095809590959B01AC01BD01CF010895E6
:10472000052E97FB1EF400940E94A72357FD07D087
:104730000E946E2307FC03D04EF40C94A7235095DF
:104740004095309521953F4F4F4F5F4F089590957D
:104750008095709561957F4F8F4F9F4F0895EE0F15
:10476000FF1F0590F491E02D0994FB01DC0102C0CC
:1047700005900D9241505040D8F70895FB01DC019F
:1047800002C001900D9241505040D8F7089568172B
:10479000790768F4FB01DC01E40FF51FA40FB51FD6
:1047A00002C002900E9241505040D8F708950C94E8
:1047B000BE23F999FECF92BD81BDF89A992780B5A5
:1047C0000895262FF999FECF1FBA92BD81BD20BD55
:1047D0000FB6F894FA9AF99A0FBE01960895F894D4
:0247E000FFCF09
:1047E2000100000001000000008E1A1611171118B6
:1047F200112B119A0C00000000E110E810EC100BD4
:10480200110D11F010F810FD1000000000831316B6
:1048120011171118112B11000000008E1A16111712
:104822001118112B118E17000000008E1FA8200EE8
:084832001F291F1B1F6C1F0052
:00000001FF
