:107800000C94343C0C943E3E0C943E3E0C943E3E14
:107810000C943E3E0C943E3E0C943E3E0C943E3EF8
:107820000C943E3E0C943E3E0C943E3E0C943E3EE8
:107830000C943E3E0C943E3E0C943E3E0C943E3ED8
:107840000C943E3E0C943E3E0C943E3E0C943E3EC8
:107850000C943E3E0C943E3E0C943E3E0C943E3EB8
:107860000C943E3E0C943E3E11241FBECFEFD8E058
:10787000DEBFCDBF11E0A0E0B1E0E4E8FFE702C069
:1078800005900D92AA30B107D9F723E0AAE0B1E044
:1078900001C01D92AA3AB207E1F70E94513C0C9434
:1078A000C03F84B780930A0114BE80916000886154
:1078B000809360001092600080910A0181FD05C0F4
:1078C000E0910B01F0910C01099511248FEF98E0E4
:1078D0009EBF8DBF569A5E982A9A84B18C6284B9F5
:1078E00083E58CBDCAE08FEF0E94403EC150D9F7BE
:1078F00080E48093220110922301109224011092BF
:1079000025011092260185E980932701C0E10E949C
:10791000453ED82F2A9A8FEF0E94403ED13009F47D
:1079200083C1C150A1F77CC12A9A8FEF0E94403ECB
:107930000E94453E8111F8CF7BC18091E4018633DE
:1079400029F4109218011092170118C06091700369
:107950007091710380917203909173037093180179
:10796000609317010E94603E8091E001863409F027
:1079700057C18091E401863309F052C18091B7016B
:10798000809319018091B8019091B901209117015C
:1079900030911801820F931F909318018093170163
:1079A0004091BA012091C0013091C101429F8001F4
:1079B000439F100D1124080F191F109321010093EC
:1079C0002001E090BB01F090BC01B4E0F694E79494
:1079D000BA95E1F7F0921B01E0921A01C8018E0DF1
:1079E0009F1DA0E0B0E080931C0190931D01A09327
:1079F0001E01B0931F01C0E0D0E08AEAC82E83E0E8
:107A0000D82ECE01A4E096958795AA95E1F78E151C
:107A10009F0508F01EC1BC01600F711F80E090E05F
:107A20000E94603EEC2FEF7080E2E89FF00111248D
:107A3000E655FE4F8081882309F40BC1853E09F489
:107A400008C1828D938D009709F403C190930E01B4
:107A500080930D01848D958DA68DB78D8093110136
:107A600090931201A0931301B0931401109210018E
:107A700010920F01D0921601C092150131E020E062
:107A800009C0DA01AE0FBF1F91E04C91841390E062
:107A900039232F5F422F50E0CA018C5F9E4FDC01DB
:107AA0008C918111EECF332309F4D3C0222309F442
:107AB000D0C0DA01AE0FBF1F9C901196AC90119709
:107AC0001296BC908185853409F0C3C080858834C6
:107AD00029F48285883509F0BCC0C2C0853409F01C
:107AE000B8C08285803509F0B4C0ADC0FF20D1F0A8
:107AF0008E010F5F1F4F0E94593F8883FA94B1E0B7
:107B00000A3A1B0741F50E947A3F209128013091E3
:107B1000290120583F4F3093290120932801CAE2C0
:107B2000D1E01AC00E94B93E8A33B1F40E94593F95
:107B3000F82E20911501309116012C5F3F4F3093A4
:107B40001601209315010E94593F813029F4CA5231
:107B5000D14081F411C0E80140911101509112010E
:107B60006091130170911401452B462B472B09F0AE
:107B7000BDCFEDCF0E947A3F692D70E0605371094F
:107B8000762F66278A2D90E0C097F4E0880F991F22
:107B9000FA95E1F7682B792B8B2D90E0C097682B35
:107BA000792B8DEF93E00E94BA3F3AC0CC2399F035
:107BB0000E94593F2091280130912901A9014F5F6E
:107BC0005F4F5093290140932801682FC9010E94FB
:107BD000A83FC15019C00E94B93E8A33A9F40E943F
:107BE000593FC82F0E94593FD82F0E94593F2D2F2F
:107BF00030E0322F2227282B3093290120932801AF
:107C00000E94593F813061F0409111015091120161
:107C10006091130170911401452B462B472B31F6CF
:107C200088E080936000FFCF81E48093220180CEC2
:107C300060E070E0CB010E94603E8091E0018634FC
:107C400009F084CE7ACE1092290110922801C0E06A
:107C5000DBCF2196C115A2E0DA0709F0D2CEE0CF42
:107C60006FEF7FEF8DEF93E00E94BA3F10922901F2
:107C700010922801CAE2D1E0F12C6ECF0C94003CA6
:107C80008EBD0DB407FEFDCF0895CF93DF938FEF28
:107C90000E94403E2A98C2E2D1E089910E94403E73
:107CA00081E0C832D807C9F7CFEF8FEF0E94403E7E
:107CB0008EB587FF02C0C150C1F7DF91CF91089503
:107CC0000F931F93CF93DF93009100011091010157
:107CD0002091020130910301601771078207930719
:107CE00009F440C060930001709301018093020188
:107CF00090930301DC01CB01880F991FAA1FBB1FC2
:107D000021E520932201A0932301909324018093E5
:107D100025011092260180E58CBD0E94453E182F5A
:107D2000882319F02A9A13E01EC0CFEF8FEF0E942C
:107D3000403E8EB58E3F19F0C150C1F7F3CFCAEA6D
:107D4000D1E08FEF0E94403E8EB5899383E0CA3A1E
:107D5000D807B9F78FEF0E94403E8FEF0E94403E58
:107D60002A9A01C010E0812FDF91CF911F910F91CE
:107D700008958F929F92AF92BF92CF92DF92EF922F
:107D8000FF920F931F93CF93DF93009115011091F2
:107D9000160183E00A3A180708F460C0E0900D016C
:107DA000F0900E01C0910F01D09110018090190147
:107DB00099249A94980C9C228694882D6E0188238D
:107DC00021F0D694C7948695FACF8FEFC114D104D1
:107DD000D9F0AF2CBB248A1551F060911701709136
:107DE00018016A0D7B1D80E090E00E94603EF70163
:107DF000FF27EE0FFF1FE655FE4FE080F18081E088
:107E0000C81AD1088A2DE2CF670182E0C81AD108CA
:107E1000E12CF12C882031F0CC0CDD1CEE1CFF1C79
:107E20008694F8CF60911C0170911D0180911E0114
:107E300090911F01690D711D811D911D6C0D7D1D9E
:107E40008E1D9F1D0E94603E2196D0931001C0930D
:107E50000F0112501093160100931501809111012A
:107E600090911201A0911301B09114010197A10901
:107E7000B1098093110190931201A0931301B09363
:107E80001401E0911501F0911601CF010196909334
:107E90001601809315018081DF91CF911F910F9181
:107EA000FF90EF90DF90CF90BF90AF909F908F901A
:107EB0000895CF930E94B93E813610F0875507C0D0
:107EC000813410F0875303C0803308F08053C82FEB
:107ED000C295C07F0E94B93E813610F0875507C019
:107EE000813410F0875303C0803308F080538C0F27
:107EF000CF910895F999FECF209128013091290161
:107F000083E0F90180935700E89507B600FCFDCFA8
:107F1000AAE2B1E080E090E061E04D915D91FC016A
:107F2000E20FF31F0A0160935700E89511240296AF
:107F30008038910591F785E0F90180935700E89525
:107F400007B600FCFDCF81E180935700E8950895C6
:107F5000262FF999FECF92BD81BDF89A019700B402
:107F6000021639F01FBA20BD0FB6F894FA9AF99AA2
:107F70000FBE08950196272F0E94A93F0C94A83F99
:047F8000F894FFCFA3
:0A7F8400FFFFFFFF4D494941500087
:040000030000780081
:00000001FF
