:101D0000112484B714BE81FF2ED185E08EBD8EE0F4
:101D100016D1D49AD29A26E083EC9FEF31E09DBD94
:101D20008CBD3BB9589BFECFCC9AA8952150B9F7F2
:101D300000E010E0B3E0FB2EEE24E39485E0D82E23
:101D40009FE7C92E2EECB22EE7D0813489F4E4D07F
:101D50008983F9D08981823819F484E0CED0CAC051
:101D6000813819F484E0C9D0C5C083E0C6D0C2C0B0
:101D7000823419F484E1EFD0BDC0853419F485E0D4
:101D8000EAD0B8C0853571F4C7D0682E7724C4D0A6
:101D9000082F10E0102F002706291729000F111F08
:101DA000D2D0A8C0863529F484E0D5D080E0A5D073
:101DB000A1C0843609F05BC0AFD0AED0A82EACD0A5
:101DC000612CE1E07E2EA8D0F30181933F01AE1695
:101DD000D1F7F801F7BEE895B6D007B600FCFDCF05
:101DE0000115110531F54091010150E0542F4427B0
:101DF0008091000190E0482B592B5093850140932E
:101E000084018091090190E0982F88272091080192
:101E100030E0822B932B909387018093860144506E
:101E200050404093080150930901C0920001B092C4
:101E30000101F801A0E0B1E02C9130E011968C9105
:101E4000119790E0982F8827822B932B12960C01E4
:101E5000E7BEE8951124329681E0A034B80761F717
:101E6000F801D7BEE89507B600FCFDCF43C0843724
:101E700081F552D051D0982E4FD065D0A92C380181
:101E80006114710419F48091840117C0F1E06F1698
:101E9000710419F48091850110C088E068167104FE
:101EA00019F48091860109C0E9E06E16710419F4F5
:101EB0008091870102C0F30184910894611C711C18
:101EC0001CD0AA94E9F60F5F1F4F9A94090D111DBB
:101ED00011C0853741F437D08EE10FD083E90DD0A2
:101EE0008CE00BD007C0813521F488E028D02BD0BE
:101EF00001C029D080E101D027CF2AE030E08095D1
:101F0000089410F4DA9802C0DA9A000014D013D0C2
:101F100086952A95B1F7089529E030E0CB99FECF58
:101F20000AD009D008D08894CB9908942A9511F04A
:101F30008795F7CF08959EE09A95F1F7089598E177
:101F400091BD81BD0895E8DF803219F088E0F7DFA8
:101F5000FFCF84E1D2CFCF93C82FDEDFC150E9F7A6
:101F6000F2DFCF91089580E0EADFE4E0FF270994F3
:021EFE000404DA
:0400000300001D00DC
:00000001FF
